{
  "contractName": "BlockPlanes",
  "abi": [
    {
      "constant": true,
      "inputs": [
        {
          "name": "",
          "type": "uint256"
        }
      ],
      "name": "planes",
      "outputs": [
        {
          "name": "attributes",
          "type": "uint256"
        }
      ],
      "payable": false,
      "stateMutability": "view",
      "type": "function"
    },
    {
      "constant": true,
      "inputs": [],
      "name": "owner",
      "outputs": [
        {
          "name": "",
          "type": "address"
        }
      ],
      "payable": false,
      "stateMutability": "view",
      "type": "function"
    },
    {
      "constant": true,
      "inputs": [
        {
          "name": "",
          "type": "uint256"
        }
      ],
      "name": "planeToOwner",
      "outputs": [
        {
          "name": "",
          "type": "address"
        }
      ],
      "payable": false,
      "stateMutability": "view",
      "type": "function"
    },
    {
      "constant": false,
      "inputs": [
        {
          "name": "newOwner",
          "type": "address"
        }
      ],
      "name": "transferOwnership",
      "outputs": [],
      "payable": false,
      "stateMutability": "nonpayable",
      "type": "function"
    },
    {
      "anonymous": false,
      "inputs": [
        {
          "indexed": false,
          "name": "planeId",
          "type": "uint256"
        },
        {
          "indexed": false,
          "name": "attributes",
          "type": "uint256"
        }
      ],
      "name": "NewPlane",
      "type": "event"
    },
    {
      "anonymous": false,
      "inputs": [
        {
          "indexed": true,
          "name": "previousOwner",
          "type": "address"
        },
        {
          "indexed": true,
          "name": "newOwner",
          "type": "address"
        }
      ],
      "name": "OwnershipTransferred",
      "type": "event"
    },
    {
      "constant": false,
      "inputs": [],
      "name": "createRandomPlane",
      "outputs": [],
      "payable": true,
      "stateMutability": "payable",
      "type": "function"
    },
    {
      "constant": false,
      "inputs": [
        {
          "name": "_fee",
          "type": "uint256"
        }
      ],
      "name": "setPurchaseFee",
      "outputs": [],
      "payable": false,
      "stateMutability": "nonpayable",
      "type": "function"
    },
    {
      "constant": true,
      "inputs": [
        {
          "name": "_owner",
          "type": "address"
        }
      ],
      "name": "getPlanesByOwner",
      "outputs": [
        {
          "name": "",
          "type": "uint256[]"
        }
      ],
      "payable": false,
      "stateMutability": "view",
      "type": "function"
    }
  ],
  "bytecode": "0x60806040526010600155600154600a0a60025566038d7ea4c68000600355336000806101000a81548173ffffffffffffffffffffffffffffffffffffffff021916908373ffffffffffffffffffffffffffffffffffffffff1602179055506108178061006c6000396000f300608060405260043610610083576000357c0100000000000000000000000000000000000000000000000000000000900463ffffffff1680634d45f5e1146100885780634fbfd07f146100925780636402cdc3146100d35780636a6e84cb146101005780638da5cb5b146101985780639f4583d2146101ef578063f2fde38b1461025c575b600080fd5b61009061029f565b005b34801561009e57600080fd5b506100bd600480360381019080803590602001909291905050506102d8565b6040518082815260200191505060405180910390f35b3480156100df57600080fd5b506100fe60048036038101908080359060200190929190505050610301565b005b34801561010c57600080fd5b50610141600480360381019080803573ffffffffffffffffffffffffffffffffffffffff169060200190929190505050610366565b6040518080602001828103825283818151815260200191508051906020019060200280838360005b83811015610184578082015181840152602081019050610169565b505050509050019250505060405180910390f35b3480156101a457600080fd5b506101ad610498565b604051808273ffffffffffffffffffffffffffffffffffffffff1673ffffffffffffffffffffffffffffffffffffffff16815260200191505060405180910390f35b3480156101fb57600080fd5b5061021a600480360381019080803590602001909291905050506104bd565b604051808273ffffffffffffffffffffffffffffffffffffffff1673ffffffffffffffffffffffffffffffffffffffff16815260200191505060405180910390f35b34801561026857600080fd5b5061029d600480360381019080803573ffffffffffffffffffffffffffffffffffffffff1690602001909291905050506104f0565b005b6000600354341415156102b157600080fd5b6102b9610645565b90506064818115156102c757fe5b06810390506102d5816106bb565b50565b6004818154811015156102e757fe5b906000526020600020016000915090508060000154905081565b6000809054906101000a900473ffffffffffffffffffffffffffffffffffffffff1673ffffffffffffffffffffffffffffffffffffffff163373ffffffffffffffffffffffffffffffffffffffff1614151561035c57600080fd5b8060038190555050565b606080600080600660008673ffffffffffffffffffffffffffffffffffffffff1673ffffffffffffffffffffffffffffffffffffffff168152602001908152602001600020546040519080825280602002602001820160405280156103da5781602001602082028038833980820191505090505b50925060009150600090505b60048054905081101561048d578473ffffffffffffffffffffffffffffffffffffffff166005600083815260200190815260200160002060009054906101000a900473ffffffffffffffffffffffffffffffffffffffff1673ffffffffffffffffffffffffffffffffffffffff1614156104805780838381518110151561046957fe5b906020019060200201818152505081806001019250505b80806001019150506103e6565b829350505050919050565b6000809054906101000a900473ffffffffffffffffffffffffffffffffffffffff1681565b60056020528060005260406000206000915054906101000a900473ffffffffffffffffffffffffffffffffffffffff1681565b6000809054906101000a900473ffffffffffffffffffffffffffffffffffffffff1673ffffffffffffffffffffffffffffffffffffffff163373ffffffffffffffffffffffffffffffffffffffff1614151561054b57600080fd5b600073ffffffffffffffffffffffffffffffffffffffff168173ffffffffffffffffffffffffffffffffffffffff161415151561058757600080fd5b8073ffffffffffffffffffffffffffffffffffffffff166000809054906101000a900473ffffffffffffffffffffffffffffffffffffffff1673ffffffffffffffffffffffffffffffffffffffff167f8be0079c531659141344cd1fd0a4f28419497f9722a3daafe3b4186f6b6457e060405160405180910390a3806000806101000a81548173ffffffffffffffffffffffffffffffffffffffff021916908373ffffffffffffffffffffffffffffffffffffffff16021790555050565b6000803342604051808373ffffffffffffffffffffffffffffffffffffffff1673ffffffffffffffffffffffffffffffffffffffff166c01000000000000000000000000028152601401828152602001925050506040518091039020600190049050600254818115156106b457fe5b0691505090565b60006001600460206040519081016040528085815250908060018154018082558091505090600182039060005260206000200160009091929091909150600082015181600001555050039050336005600083815260200190815260200160002060006101000a81548173ffffffffffffffffffffffffffffffffffffffff021916908373ffffffffffffffffffffffffffffffffffffffff160217905550600660003373ffffffffffffffffffffffffffffffffffffffff1673ffffffffffffffffffffffffffffffffffffffff168152602001908152602001600020600081548092919060010191905055507fcd10f9b79ef5907182ae1cd173aa4d528e237835aceb4b2b173c360fc490a73d8183604051808381526020018281526020019250505060405180910390a150505600a165627a7a723058205fb1fed16aa6dd8e720e8af7cbe9a36adaef633b96d6923ac7da19f8b5d1332c0029",
  "source": "pragma solidity ^0.4.19;\r\n\r\nimport \"./helpers/ownable.sol\";\r\nimport \"./helpers/safemath.sol\";\r\n\r\n/// @title BlockPlanes main contract\r\n/// @author Sean Malone, Joseph Nguyen, Nick Vrdoljak\r\n\r\ncontract BlockPlanes is Ownable {\r\n\r\n    using SafeMath for uint256;\r\n\r\n    event NewPlane(uint planeId, uint attributes);\r\n\r\n    uint dnaDigits = 16;\r\n    uint dnaModulus = 10 ** dnaDigits;\r\n\r\n    uint newPlaneFee = 0.001 ether;\r\n\r\n    struct Plane {\r\n        uint attributes;\r\n    }\r\n\r\n    Plane[] public planes;\r\n\r\n    mapping (uint => address) public planeToOwner;\r\n    mapping (address => uint) ownerPlaneCount;\r\n\r\n    function _createPlane(uint _attributes) internal {\r\n        uint id = planes.push(Plane(_attributes)) - 1;\r\n        planeToOwner[id] = msg.sender;\r\n        ownerPlaneCount[msg.sender]++;\r\n        emit NewPlane(id, _attributes);\r\n    }\r\n\r\n    function _generateRandomAttributes() private view returns (uint) {\r\n        uint rand = uint(keccak256(msg.sender, now));\r\n        return rand % dnaModulus;\r\n    }\r\n\r\n    function createRandomPlane() external payable {\r\n        require(msg.value == newPlaneFee);\r\n        uint randDna = _generateRandomAttributes();\r\n        randDna = randDna - randDna % 100;\r\n        _createPlane(randDna);\r\n    }\r\n\r\n    function setPurchaseFee(uint _fee) external onlyOwner {\r\n        newPlaneFee = _fee;\r\n    }\r\n\r\n    function getPlanesByOwner(address _owner) external view returns(uint[]) {\r\n        uint[] memory result = new uint[](ownerPlaneCount[_owner]);\r\n        uint counter = 0;\r\n        for (uint i = 0; i < planes.length; i++) {\r\n            if (planeToOwner[i] == _owner) {\r\n                result[counter] = i;\r\n                counter++;\r\n            }\r\n        }\r\n        return result;\r\n    }\r\n\r\n    /// @param withdraw funds to the owner's account\r\n    // function withdraw() external onlyOwner {\r\n    //     owner.transfer(this.balance);\r\n    // }\r\n\r\n}\r\n",
  "sourcePath": "C:\\Users\\Nick\\Documents\\GitHub\\block-planes\\block-planes-solidity\\BlockPlanes\\contracts\\blockplanes.sol",
  "compiler": {
    "name": "solc",
    "version": "0.4.23+commit.124ca40d.Emscripten.clang"
  },
  "schemaVersion": "2.0.0",
  "updatedAt": "2018-05-05T22:42:04.575Z"
}