{
  "contractName": "BlockPlanes",
  "abi": [
    {
      "constant": true,
      "inputs": [
        {
          "name": "",
          "type": "uint256"
        }
      ],
      "name": "planes",
      "outputs": [
        {
          "name": "attributes",
          "type": "uint256"
        }
      ],
      "payable": false,
      "stateMutability": "view",
      "type": "function"
    },
    {
      "constant": true,
      "inputs": [],
      "name": "owner",
      "outputs": [
        {
          "name": "",
          "type": "address"
        }
      ],
      "payable": false,
      "stateMutability": "view",
      "type": "function"
    },
    {
      "constant": true,
      "inputs": [
        {
          "name": "",
          "type": "uint256"
        }
      ],
      "name": "planeToOwner",
      "outputs": [
        {
          "name": "",
          "type": "address"
        }
      ],
      "payable": false,
      "stateMutability": "view",
      "type": "function"
    },
    {
      "constant": true,
      "inputs": [
        {
          "name": "",
          "type": "address"
        }
      ],
      "name": "ownerPlaneCount",
      "outputs": [
        {
          "name": "",
          "type": "uint256"
        }
      ],
      "payable": false,
      "stateMutability": "view",
      "type": "function"
    },
    {
      "constant": false,
      "inputs": [
        {
          "name": "newOwner",
          "type": "address"
        }
      ],
      "name": "transferOwnership",
      "outputs": [],
      "payable": false,
      "stateMutability": "nonpayable",
      "type": "function"
    },
    {
      "anonymous": false,
      "inputs": [
        {
          "indexed": false,
          "name": "planeId",
          "type": "uint256"
        },
        {
          "indexed": false,
          "name": "attributes",
          "type": "uint256"
        }
      ],
      "name": "NewPlane",
      "type": "event"
    },
    {
      "anonymous": false,
      "inputs": [
        {
          "indexed": true,
          "name": "previousOwner",
          "type": "address"
        },
        {
          "indexed": true,
          "name": "newOwner",
          "type": "address"
        }
      ],
      "name": "OwnershipTransferred",
      "type": "event"
    },
    {
      "constant": false,
      "inputs": [],
      "name": "createRandomPlane",
      "outputs": [],
      "payable": true,
      "stateMutability": "payable",
      "type": "function"
    },
    {
      "constant": false,
      "inputs": [
        {
          "name": "_fee",
          "type": "uint256"
        }
      ],
      "name": "setPurchaseFee",
      "outputs": [],
      "payable": false,
      "stateMutability": "nonpayable",
      "type": "function"
    },
    {
      "constant": true,
      "inputs": [
        {
          "name": "_owner",
          "type": "address"
        }
      ],
      "name": "getPlanesByOwner",
      "outputs": [
        {
          "name": "",
          "type": "uint256[]"
        }
      ],
      "payable": false,
      "stateMutability": "view",
      "type": "function"
    },
    {
      "constant": false,
      "inputs": [],
      "name": "withdraw",
      "outputs": [],
      "payable": false,
      "stateMutability": "nonpayable",
      "type": "function"
    }
  ],
  "bytecode": "0x60806040526010600155600154600a0a60025566038d7ea4c68000600355336000806101000a81548173ffffffffffffffffffffffffffffffffffffffff021916908373ffffffffffffffffffffffffffffffffffffffff1602179055506109f48061006c6000396000f300608060405260043610610099576000357c0100000000000000000000000000000000000000000000000000000000900463ffffffff1680633ccfd60b1461009e5780634d45f5e1146100b55780634fbfd07f146100bf5780636402cdc3146101005780636a6e84cb1461012d5780638da5cb5b146101c55780639f4583d21461021c578063e156d35314610289578063f2fde38b146102e0575b600080fd5b3480156100aa57600080fd5b506100b3610323565b005b6100bd6103ff565b005b3480156100cb57600080fd5b506100ea60048036038101908080359060200190929190505050610438565b6040518082815260200191505060405180910390f35b34801561010c57600080fd5b5061012b60048036038101908080359060200190929190505050610461565b005b34801561013957600080fd5b5061016e600480360381019080803573ffffffffffffffffffffffffffffffffffffffff1690602001909291905050506104c6565b6040518080602001828103825283818151815260200191508051906020019060200280838360005b838110156101b1578082015181840152602081019050610196565b505050509050019250505060405180910390f35b3480156101d157600080fd5b506101da6105f8565b604051808273ffffffffffffffffffffffffffffffffffffffff1673ffffffffffffffffffffffffffffffffffffffff16815260200191505060405180910390f35b34801561022857600080fd5b506102476004803603810190808035906020019092919050505061061d565b604051808273ffffffffffffffffffffffffffffffffffffffff1673ffffffffffffffffffffffffffffffffffffffff16815260200191505060405180910390f35b34801561029557600080fd5b506102ca600480360381019080803573ffffffffffffffffffffffffffffffffffffffff169060200190929190505050610650565b6040518082815260200191505060405180910390f35b3480156102ec57600080fd5b50610321600480360381019080803573ffffffffffffffffffffffffffffffffffffffff169060200190929190505050610668565b005b6000809054906101000a900473ffffffffffffffffffffffffffffffffffffffff1673ffffffffffffffffffffffffffffffffffffffff163373ffffffffffffffffffffffffffffffffffffffff1614151561037e57600080fd5b6000809054906101000a900473ffffffffffffffffffffffffffffffffffffffff1673ffffffffffffffffffffffffffffffffffffffff166108fc3073ffffffffffffffffffffffffffffffffffffffff16319081150290604051600060405180830381858888f193505050501580156103fc573d6000803e3d6000fd5b50565b60006003543414151561041157600080fd5b6104196107bd565b905060648181151561042757fe5b068103905061043581610833565b50565b60048181548110151561044757fe5b906000526020600020016000915090508060000154905081565b6000809054906101000a900473ffffffffffffffffffffffffffffffffffffffff1673ffffffffffffffffffffffffffffffffffffffff163373ffffffffffffffffffffffffffffffffffffffff161415156104bc57600080fd5b8060038190555050565b606080600080600660008673ffffffffffffffffffffffffffffffffffffffff1673ffffffffffffffffffffffffffffffffffffffff1681526020019081526020016000205460405190808252806020026020018201604052801561053a5781602001602082028038833980820191505090505b50925060009150600090505b6004805490508110156105ed578473ffffffffffffffffffffffffffffffffffffffff166005600083815260200190815260200160002060009054906101000a900473ffffffffffffffffffffffffffffffffffffffff1673ffffffffffffffffffffffffffffffffffffffff1614156105e0578083838151811015156105c957fe5b906020019060200201818152505081806001019250505b8080600101915050610546565b829350505050919050565b6000809054906101000a900473ffffffffffffffffffffffffffffffffffffffff1681565b60056020528060005260406000206000915054906101000a900473ffffffffffffffffffffffffffffffffffffffff1681565b60066020528060005260406000206000915090505481565b6000809054906101000a900473ffffffffffffffffffffffffffffffffffffffff1673ffffffffffffffffffffffffffffffffffffffff163373ffffffffffffffffffffffffffffffffffffffff161415156106c357600080fd5b600073ffffffffffffffffffffffffffffffffffffffff168173ffffffffffffffffffffffffffffffffffffffff16141515156106ff57600080fd5b8073ffffffffffffffffffffffffffffffffffffffff166000809054906101000a900473ffffffffffffffffffffffffffffffffffffffff1673ffffffffffffffffffffffffffffffffffffffff167f8be0079c531659141344cd1fd0a4f28419497f9722a3daafe3b4186f6b6457e060405160405180910390a3806000806101000a81548173ffffffffffffffffffffffffffffffffffffffff021916908373ffffffffffffffffffffffffffffffffffffffff16021790555050565b6000803342604051808373ffffffffffffffffffffffffffffffffffffffff1673ffffffffffffffffffffffffffffffffffffffff166c010000000000000000000000000281526014018281526020019250505060405180910390206001900490506002548181151561082c57fe5b0691505090565b60006001600460206040519081016040528085815250908060018154018082558091505090600182039060005260206000200160009091929091909150600082015181600001555050039050336005600083815260200190815260200160002060006101000a81548173ffffffffffffffffffffffffffffffffffffffff021916908373ffffffffffffffffffffffffffffffffffffffff1602179055506109246001600660003373ffffffffffffffffffffffffffffffffffffffff1673ffffffffffffffffffffffffffffffffffffffff168152602001908152602001600020546109aa90919063ffffffff16565b600660003373ffffffffffffffffffffffffffffffffffffffff1673ffffffffffffffffffffffffffffffffffffffff168152602001908152602001600020819055507fcd10f9b79ef5907182ae1cd173aa4d528e237835aceb4b2b173c360fc490a73d8183604051808381526020018281526020019250505060405180910390a15050565b60008082840190508381101515156109be57fe5b80915050929150505600a165627a7a72305820bf0d4182c1d33d201c8462c5f4771b11f7c074bb35f58e7fdb89b4f0a30fcc190029",
  "source": "pragma solidity ^0.4.19;\r\n\r\nimport \"./helpers/ownable.sol\";\r\nimport \"./helpers/safemath.sol\";\r\n\r\n/// @title BlockPlanes main contract\r\n/// @author Sean Malone, Joseph Nguyen, Nick Vrdoljak\r\n\r\ncontract BlockPlanes is Ownable {\r\n\r\n    /// throws errors when overflow is going to occurr\r\n    using SafeMath for uint256;\r\n\r\n    /// emits an event when a plane is created\r\n    event NewPlane(uint planeId, uint attributes);\r\n\r\n    /// limits the length of the attribute string\r\n    uint attrDigits = 16;\r\n    uint attrModulus = 10 ** attrDigits;\r\n\r\n    /// sets a fee for purchasing a new plane\r\n    uint newPlaneFee = 0.001 ether;\r\n\r\n    struct Plane {\r\n        uint attributes;\r\n    }\r\n\r\n    /// store all planes in an array\r\n    Plane[] public planes;\r\n\r\n    /// map each plane to a single owner\r\n    mapping (uint => address) public planeToOwner;\r\n    /// map each owner to a number of planes\r\n    mapping (address => uint) public ownerPlaneCount;\r\n\r\n    /// takes in an attribute string and adds a plane struct to the planes array, then emits a new plane event\r\n    function _createPlane(uint _attributes) internal {\r\n        uint id = planes.push(Plane(_attributes)) - 1;\r\n        planeToOwner[id] = msg.sender;\r\n        ownerPlaneCount[msg.sender] = ownerPlaneCount[msg.sender].add(1);\r\n        emit NewPlane(id, _attributes);\r\n    }\r\n\r\n    /// generates a random plane attribute string based on the sender's address and the current block/time\r\n    /// @dev now is not secure for RNG but this is a non-critical function so it is deemed acceptable\r\n    function _generateRandomAttributes() private view returns (uint) {\r\n        uint rand = uint(keccak256(msg.sender, now));\r\n        return rand % attrModulus;\r\n    }\r\n\r\n    /// payable function for user to create a plane\r\n    function createRandomPlane() external payable {\r\n        require(msg.value == newPlaneFee);\r\n        uint randDna = _generateRandomAttributes();\r\n        randDna = randDna - randDna % 100;\r\n        _createPlane(randDna);\r\n    }\r\n\r\n    /// methodology to re-set the purchase fee \r\n    function setPurchaseFee(uint _fee) external onlyOwner {\r\n        newPlaneFee = _fee;\r\n    }\r\n\r\n    /// takes owner address and iterates over all planes, returning an array of the plane IDs that they own \r\n    /// (to get the planes themselves you will need to iterate through and get the planes themselves via the mapping getter function)\r\n    function getPlanesByOwner(address _owner) external view returns(uint[]) {\r\n        uint[] memory result = new uint[](ownerPlaneCount[_owner]);\r\n        uint counter = 0;\r\n        for (uint i = 0; i < planes.length; i++) {\r\n            if (planeToOwner[i] == _owner) {\r\n                result[counter] = i;\r\n                counter++;\r\n            }\r\n        }\r\n        return result;\r\n    }\r\n\r\n    /// withdraw funds to the owner's account\r\n    function withdraw() external onlyOwner {\r\n        owner.transfer(this.balance);\r\n    }\r\n}",
  "sourcePath": "C:\\Users\\Nick\\Documents\\GitHub\\block-planes\\block-planes-solidity\\BlockPlanes\\contracts\\blockplanes.sol",
  "compiler": {
    "name": "solc",
    "version": "0.4.23+commit.124ca40d.Emscripten.clang"
  },
  "schemaVersion": "2.0.0",
  "updatedAt": "2018-05-10T23:15:33.176Z"
}